:020000020000FC
:100000000C942D0418951895189518951895189511
:100010001895189518951895189518951895189578
:100020001895189518951895189518951895189568
:100030001895189518951895189518951895189558
:100040001895189518951895189518951895189548
:100050001895189518951895189518951895189538
:100060001895189518951895189518951895189528
:100070001895189518951895189518951895189518
:10008000189518951895189518951895000024033B
:1000900048066A098C0CAB0FC812E215F9180B1C44
:1000A0001A1F2322282526281F2B112EFB30DF3371
:1000B000BA368C39563C173FCE417A441C47B44976
:1000C0003F4CBF4E33519B53F5554258825AB35C57
:1000D000D75EEB60F162E864CF66A6686D6A236C58
:1000E000C96D5E6FE2705472B573047541766B77BB
:1000F000847889797C7A5C7B297CE37C897D1D7E90
:100100009C7E097F617FA67FD87FF57FFF7FF57F8B
:100110006A925A924A92AA931C01A8015F7756FBF1
:100120002EF460E070E8601B750BAB01652F70E08A
:10013000660F771FECE8F0E0E60FF71F6591759109
:1001400045905490461A570A652C660C660850E094
:10015000842F869DA02D859D902DA10D849D910DB0
:10016000A51F690F7A1F17FF03C071956195704035
:100170008B01C101A9914990599069900895BA9253
:10018000AA929A92F82D372C762D552DE42D682FB2
:100190002801390188249924AA24BB24002400E8DA
:1001A000102E22248FE084019501000F111F221FC1
:1001B000331F000D111D221D321D482F0E949B046C
:1001C0008A95401651066206730640F0800C911C19
:1001D000A21CB21C401A510A620A730A16940794B0
:1001E000002D012901F784019501862F4E2E552EF1
:1001F000672E732C8F2E9990A990B9900895592F3E
:10020000282EB8010024112420E830E087E090E097
:100210008001000F111F020F131F482F0E947B0443
:1002200001976017710720F0020E131E601B710BFF
:10023000269571F78001822D952F0895AD01A5E4D3
:10024000B3E00D911C911597212F220F220B322F15
:100250000E941E050D931D932D933C93DA01089582
:100260005B2F6A2FA1E4B3E00D911D912D913D917B
:100270000E942B050D931C93A62FB52F0895BA93BA
:10028000AA93A9E3B3E040E050E060E870E40D9188
:100290001D912D913C9115960E947D0528C0BA9321
:1002A000AA93ADE3B3E00D911D912D913C91179769
:1002B0004D915D916D917C9115960E947D0517C0C1
:1002C000BA93AA93A9E3B3E040E050E060E870E499
:1002D0000D911D912D913C9115960E94DE0507C050
:1002E0000D911D912D913C9115960E9457060D93ED
:1002F0001D932D933C93A991B9910895BA93AA9314
:10030000ADE3B3E00D911D912D913C9117974D9167
:100310005D916D917C9115960E94DE05E8CFBA93B0
:10032000AA93A9E3B3E04AE959E969E170E4D8CFB7
:10033000BA93AA93ADE3B3E04D915D916D917C9139
:100340001797CECFBA93AA93A9E3B3E00D911D916D
:100350002D913C9115960E942E08C9CFBA93AA936D
:10036000A9E3B3E00D911D912D913C9115960E944A
:100370008907BDCF9D01A7E4B3E04AE050E00D91AD
:100380001C9113960E9487040D931C93D901089524
:10039000E7E4F3E0408151810DEC1CEC2224159F31
:1003A0009001149F102D210D321D059F100D211D50
:1003B000321D049F110D221D321D890116950795CE
:1003C0001695079516950795048315830895E7E418
:1003D000F3E00081118116950795F0CF9D01A9E406
:1003E000B3E04D915C911397CACFE7E4F3E020812D
:1003F000318107E1039F102D029F110D04821583A7
:100400000895E7E4F3E00081118122813381309F78
:10041000302D219F300D209F310D048235830895AA
:10042000BA93FA2FADE4B3E04AE050E060E070E048
:100430000D911D912D913C9115960E94B3040D9341
:100440001D932D933C93AF2FB9910895EDE4F3E004
:1004500044E000811181228133810E94A30400873E
:100460001187228733870895BA93FA2FA1E5B3E065
:100470004D915D916D917C911797DACFEDE4F3E0AA
:1004800040815181628173810AEE2224079F302DC1
:10049000069F202D310D059F102D210D321D049F2B
:1004A000110D221D321D0086DBCF06EA13EB25E677
:1004B00031E065DEEDE4F3E0D2CF0895089502E97E
:1004C0001BE59DDE00934B0310934C03089505E557
:1004D00015E120E030E01CDE212F220F220BEDE49D
:1004E000F3E000871187228723870895E9E5F3E089
:1004F0006481758106811781601B710B6287738728
:100500000685248535851B01221A330A309E302C3E
:10051000209E202C310C0785079F102D069F002D53
:10052000110D005F1F4F45E00E948104020D131D55
:10053000212F220F220B0080118022803380000E99
:10054000111E221E321E00821182228233828001FD
:10055000910101304DE7140740E0240734071CF0F7
:100560001DE7408309C0003013484FEF2F4F3F4F26
:1005700034F400E013E8008311834283438345E0B1
:1005800000811181228133810E94AB040087118791
:10059000648775870895F80103C010E011BF00BF9C
:1005A00001910023D1F708958A9327979801FE01BE
:1005B000369600E00E83112332F48DE231952195B9
:1005C0003040890102C080E2022F202F212B29F424
:1005D000FE01359600E30D8323C0A8010DEC1CEC51
:1005E0002224159F9001149F102D210D321D059F6F
:1005F000100D211D321D049F110D221D321D890178
:10060000169507951695079516950795242F205D45
:10061000402F3AE0439F20192293202F212BE9F607
:1006200082938E010E171F0728F420E222930E17E3
:100630001F07D8F3B0DF2796899108950BE511E8DD
:10064000B3CF27978E01A7DF27960895AD019C01B0
:1006500000E089E693E0FC01A02FB0E01AE0A1934E
:10066000B1931A961A95D9F7039544960A3098F3E0
:10067000C901DA010895192F482F89E693E03AE07D
:10068000FC012AE000E0019301932A95D9F74496F2
:100690003A95B1F7842F912F0895E9E6F3E024E627
:1006A00000E0019301932A95D9F70895F6CFF5CF8D
:1006B0009A938A93C90120E02FBD2EBD2DBD2CBD7C
:1006C00026BF21E02EBDF801099500E00EBD0CB556
:1006D0001DB56ADF00E411E05EDF8C015CDF06B768
:1006E00002FF03C004E411E056DF06E511E053DF2A
:1006F0000CB51DB589919991089508E511E04BDF7E
:1007000008E711E048DF21E931E00EE111E0D0DF38
:1007100028EA31E000E311E0CBDF2DEB31E00FE31D
:1007200011E0C6DF2DEC31E00FE411E0C1DF27ED71
:1007300031E000E611E0BCDF27EE31E00EE711E02A
:10074000B7DF21EF31E00FE811E0B2DF21E032E066
:1007500008E911E0ADDF2BE032E00AEB11E0A8DFA1
:1007600027E132E008EC11E0A3DF28E232E007EEF7
:1007700011E09EDF24E332E00EEE11E099DF2EE37C
:1007800032E005EF11E094DF2FE432E001E012E007
:100790008FDF2AE532E000E112E08ADF26E632E070
:1007A00006E212E085DF22E732E004E312E080DFB8
:1007B0002CE732E00EE312E07BDF2DE832E002EAC4
:1007C00011E076DF28E932E00FE512E071DF23EA7D
:1007D00032E00EE512E06CDF22EB32E005E512E0DC
:1007E00067DF2DEB32E00DE512E062DF2CEC32E04A
:1007F0000EEA11E05DDF26ED32E007E612E058DF99
:1008000025DF20EE32E00BE313E052DF1FDF2BEE9B
:1008100032E00DE413E04CDF19DF26EF32E006E5AD
:1008200013E046DF13DF21E033E007E513E040DFAC
:100830002CE033E006E712E03BDF2CE133E00EE191
:1008400013E036DF28E233E001E213E031DF00E0BD
:1008500010E0089500008895FECF0FE30DBF01E082
:100860000EBFC0E2D1E00E941E07002311F00E94DB
:1008700059070E947D030E942A040C942A040D014A
:10088000DA0140E050E060E070E00E94D60639F402
:1008900000E010E04D934C9320E030E00CC0B90133
:1008A000660F771F7E57572F550F550B7D935C931F
:1008B0002F7730783F63D00108950024E8E0EA956F
:1008C00032F0001F001C0416D0F3041AF8CF001FEA
:1008D000402D00950895FF27442312F4F1604195BF
:1008E000002312F4F09501950E945D04F0FD01953E
:1008F000F1FD419508954A951AF0000F111FFBCFA5
:1009000008954A951AF015950795FBCF0895002490
:100910001124EFE0001F111F001C111C0416150606
:1009200010F0041A150AEA95AAF7001F111FA0017A
:100930000095109508954A952AF0000F111F221F67
:10094000331FF9CF08954A952AF0369527951795C4
:100950000795F9CF08954A952AF03595279517956B
:100960000795F9CF0895002411241001E0E2EA95DB
:1009700092F0001F111F221F331F001C111C221C8C
:10098000331C041615062606370688F3041A150AC2
:10099000260A370AECCF001F111F221F331FA001A8
:1009A000B1010095109520953095089530952095CA
:1009B000109501951F4F2F4F3F4F0895FF2711248A
:1009C00077FB660F771F089409F4771F679517F870
:1009D000EE27002437FB220F331F089409F4331F3E
:1009E000279507F8089527FD0EC0EE0F001F111F71
:1009F000221F3A953230B8F7332319F427FD31E03E
:100A000002C027FF30E0E03821F400FF08940EF424
:100A100088940F4F1F4F2F4F3F4F323038F43323FE
:100A200019F427FD31E002C027FF30E03F3F29F0F5
:100A3000220F000C379527950895ACC0032E002097
:100A400012F40E94D604E02F012F122F232F3EE92B
:100A5000D1CF0024F8CFBCDF432F4F5748F04F31A0
:100A600048F007FC91C03FE72FEF1FEF0FEF08950D
:100A700033278CC0322F212F102F0E2F4F5141952D
:100A80000E94A30407FE08950C94D604F901EE0F0A
:100A9000FF1F37FBFF3F31F0EF2BE12BE02B88945A
:100AA000B8940895E02BE12B21F008949894B89421
:100AB00008959894889438940895FB01EE0FFF1FD1
:100AC00077FBFF3F31F0EF2BE52BE42B8894B894B4
:100AD0000895E42BE52B69F3E8CFEFDF68F021F40C
:100AE0003723262F8A010895372FFBCFE6DF20F02A
:100AF0000BF008957327EAF751C0C8DFE8F3B3F3AA
:100B000061F3DBDFC8F383F3A1F358DF401751072C
:100B10006207730731F4011411F10024E8948894FA
:100B20002BC078F0332E372F732D322E262F632DC6
:100B3000312E152F532D302E042F432D302C012C08
:100B4000132C371739F0669557954795F795E04080
:100B50007395F7CFE7FBEE0FE0E010246AF0EF0F9C
:100B6000041F151F261F60F4279517950795E79515
:100B700008F4689433953ECFEF0B040B150B260B4E
:100B800039CFE0E87E27B9CF302D307822271127E2
:100B9000002708953FE7302920E8F9CF3FEF2FEFF6
:100BA000F6CF8BDFD8F3D1F370783727089585DF40
:100BB000A8F3A3F3F9CF3078372793CF67DF70F32B
:100BC00083F3A9F37ADF50F3B3F3A9F3F7DE01243B
:100BD000E8943F57E040370FEF1F12F0D9F603C0FB
:100BE0003A3E90F26894E0E00A92AA933A93AA27D8
:100BF000332422243327049FF001059FF00D712D2B
:100C0000731F149FF00D711D221C069F700D211C77
:100C1000331C159F700D211C331E249F700D211C49
:100C2000331E169F200C311CAA1F259F200C311C3F
:100C3000A31F269F300CA11D39915EF43395A69514
:100C4000379427947795F795E79533953130BCF332
:100C500016C0AA2322F0332351F4339510C03395E4
:100C600071F4A991099096CFA7FD09C03A95EE0FAE
:100C7000FF1F771F221C331CAA1F3230A8F7E894ED
:100C8000FE2B09F068942A2F8101E72FA991099082
:100C9000BACE13DF10F00BF087CF80CF0EDFE9F371
:100CA000E0F3032E072670CF032E072673CFEEDE68
:100CB000A0F37BF399F301DF80F39BF3A9F37EDECE
:100CC000012427FD06C0000F111F221F3150E040F4
:100CD000F8CF67FD06C0440F551F661F7150F040E6
:100CE000F8CFE894371BEF0B3158EF4F2AF0EE2383
:100CF000E9F63F3FD9F203C03A3EA8F26894E0E03B
:100D0000F0E01124139440175107620738F0315076
:100D100008F46894000F111F221FEE1F041B150B0F
:100D2000260BEF0B000F111F221FEE1F0A9279E115
:100D30007A95AAF0041715072607EF0730F0041B71
:100D4000150B260BEF0B089401C08894111C221C74
:100D5000331C001C000F111F221FEE1FE9CFF0F9FA
:100D6000E894E22BE12BE02B09F068940694379489
:100D700027941794E79508F468947395B9F309904C
:100D8000332311F0F0FF09C0369427941794E795A8
:100D900008F4689433953130BCF3012D122D232DC6
:100DA00032CE8BCE98940895189408956FDED0F3C8
:100DB000C1F383DEB8F30417150726073707089534
:100DC0007CDEA0F063DE90F029F0E32FE7273AF411
:100DD0007317089572DE51F04EF0089408950417C9
:100DE00015072607370719F016F4B8F78894089501
:100DF00064DEE0F34BDED0F3E7DFC0F30894089540
:100E0000BA92AA929A928A927A926A925A924A9242
:100E1000BA93AA939A938A930895BB84AA849984D7
:100E200088847F806E805D804C80BB81AA8199819F
:100E30008881F0E0EC0FFD1FEF01089501E00895B7
:100E40000E940807C801D9011A013F7740E856E916
:100E500068E17BE40E94F80638F416D0B38300E022
:100E600010E020E030E00DC03B2F0E942B050E94D7
:100E70001E050AD03383A801B9018C019D010E948F
:100E8000C105E4E00C941507F1010083118322836E
:100E9000089520E008D0E9F708953BBF27913BB7BC
:100EA00002D0D9F708952D9301501040202F212B07
:100EB000089506E4402E01E1502E00E0602EF2017C
:100EC000362D6BBE07911691F201EE5FFF4F3F4F3B
:100ED0003BBFA791B691F201362DEC5FFF4F3F4F1C
:100EE0003BBF479157916691242F252B262B21F04C
:100EF000FA01362FD2DF01C0CCDF07E0400E00E060
:100F0000501E601EA201662D443551416040B8F26A
:100F1000089540E00C948C070E9404072897802FC6
:100F2000B32F442E40E050E060E070E00E94E00605
:100F300010F401E001C000E0000F400EBF7743E86D
:100F400059EF62E27FE3082F3B2F80D076D041E05B
:100F50005CEF6FE777E40E94F80688F5AE010E9427
:100F600020076BD0042D10E06BD0488159816A8135
:100F70007B8172D0088319832A833B83AE014C5F47
:100F80005F4F2A0140E050E060E87EE35FD0A201BD
:100F90000E94200740E050E060E870E40C811D8171
:100FA0002E813F8153D0A801B901088119812A817E
:100FB0003B810E94C1050E942B05402E0CC00E945F
:100FC0002B05602E3DD0A801B9018C019D0133D0C5
:100FD000460C03E0402240FA3EF4AC01BD0100E0C3
:100FE00010E020E83FE327D002E0401608F0B058B8
:100FF0008C019D0129D0280139014BEF57ED6EE19D
:1010000079E324D045E656E269E97BEB21D048E557
:1010100054E363EA7DE31CD041EE5DE565E27FEBDE
:1010200017D04BED5FE069EC7FE316D00DD028962A
:10103000E8E00C9411070E94C105C801D901089588
:1010400020E030E00C942905AC01BD010C94DE05D4
:1010500003D0A201B301FACF0C947D050E940007D2
:1010600022974801590141E050E060E070E00E94A1
:10107000E00698F440E00E94D60629F400E010E073
:1010800020E030E04EC001E2E1E3F4E00083518370
:101090000FEF1FEF2FE73FE744C0AE010E943F0470
:1010A000C801D90145EC53E062E47FE30E947D056D
:1010B0004AE151E562E17FE33BD0A801B9018C012F
:1010C0009D013BD0402E088100FF14C00A952DD011
:1010D000802F43EF54E065EB7FE3042D0E94DE0593
:1010E00037FB220F331F380F3695279537F9C80184
:1010F000D9010BC01AD0842D912FD901B7FBAA0FAB
:10110000BB1FB00FB695A795B7F940E050E060E877
:101110007EE38C019D010CD0AC01BD0184019501E1
:101120000CD02296ECE00C940D0742E00C946B047A
:101130000E94DE052801390108950E945706A20188
:10114000B3010C947D0529024001541100CA0069C5
:1011500003000000203A2000202854696D65726F5A
:10116000766572666C6F772129000A000A5A6569F4
:10117000746D657373756E672052656368656E6F15
:101180007065726174696F6E656E0A000A20546141
:101190006B746520202046756E6B74696F6E736E7C
:1011A000616D650A00666C6F61745F636F6E766572
:1011B00072745F746F5F666C6F617400666C6F61F0
:1011C000745F636F6E766572745F746F5F696E745F
:1011D00000666C6F61745F6164645F636F6E7374EB
:1011E00000666C6F61745F61646400666C6F61744B
:1011F0005F6D756C5F636F6E737400666C6F6174A6
:101200005F6D756C00666C6F61745F6469765F63B7
:101210006F6E737400666C6F61745F6469760069E9
:101220006E7431365F646976313000696E743136C0
:101230005F64697631305F6661737400696E743122
:10124000365F646976313600696E7431365F646981
:101250007600696E7431365F6D756C745F636F6EA6
:10126000737400696E7431365F6D756C7400696EED
:101270007433325F646976313000696E7433325F83
:10128000646976313600696E7433325F6469760062
:10129000696E7433325F6D756C745F636F6E7374F7
:1012A00000666C6F61745F7371727400696E743183
:1012B000365F7371727400696E7431365F73717268
:1012C000745F61736D00696E7433325F7371727431
:1012D00000696E7433325F737172745F61736D0095
:1012E000666C6F61745F73696E00696E7431365F2E
:1012F00073696E00746573745F6C6F6F7031007426
:101300006573745F6C6F6F703200746573745F6CBB
:101310006F6F703300746573745F6C6F6F7034003F
:10132000696E7431365F70695F7265676C657200F3
:101330007072696E745F696E743136007072696EB6
:10134000745F696E7431365F69746F610086E5574A
:1013500045D0213F4600000000925B28091700009D
:1013600000945B0000170000000000000000000077
:0D1370000064005000000000000000320F7B
:0400000300000000F9
:00000001FF
