:020000020000FC
:100000000C942B0418951895189518951895189513
:100010001895189518951895189518951895189578
:100020001895189518951895189518951895189568
:100030001895189518951895189518951895189558
:100040001895189518951895189518951895189548
:100050001895189518951895189518951895189538
:100060001895189518951895189518951895189528
:100070001895189518951895189518951895189518
:10008000189518951895189518951895000024033B
:1000900048066A098C0CAB0FC812E215F9180B1C44
:1000A0001A1F2322282526281F2B112EFB30DF3371
:1000B000BA368C39563C173FCE417A441C47B44976
:1000C0003F4CBF4E33519B53F5554258825AB35C57
:1000D000D75EEB60F162E864CF66A6686D6A236C58
:1000E000C96D5E6FE2705472B573047541766B77BB
:1000F000847889797C7A5C7B297CE37C897D1D7E90
:100100009C7E097F617FA67FD87FF57FFF7FF57F8B
:100110006A925A924A92AA931C01A8015F7756FBF1
:100120002EF460E070E8601B750BAB01652F70E08A
:10013000660F771FECE8F0E0E60FF71F6591759109
:1001400045905490461A570A652C660C660850E094
:10015000842F869DA02D859D902DA10D849D910DB0
:10016000A51F690F7A1F17FF03C071956195704035
:100170008B01C101A9914990599069900895BA9253
:10018000AA929A92F82D372C762D552DE42D682FB2
:100190002801390188249924AA24BB24002400E8DA
:1001A000102E22248FE084019501000F111F221FC1
:1001B000331F000D111D221D321D482F0E9499046E
:1001C0008A95401651066206730640F0800C911C19
:1001D000A21CB21C401A510A620A730A16940794B0
:1001E000002D012901F784019501862F4E2E552EF1
:1001F000672E732C8F2E9990A990B9900895592F3E
:10020000282EB8010024112420E830E087E090E097
:100210008001000F111F020F131F482F0E94790445
:1002200001976017710720F0020E131E601B710BFF
:10023000269571F78001822D952F0895AD01AFEFBE
:10024000B2E00D911C911597212F220F220B322F16
:100250000E941C050D931D932D933C93DA01089584
:100260005B2F6A2FABEFB2E00D911D912D913D9167
:100270000E9429050D931C93A62FB52F0895BA93BC
:10028000AA93A3EFB2E040E050E060E870E40D9183
:100290001D912D913C9115960E947B0528C0BA9323
:1002A000AA93A7EFB2E00D911D912D913C91179764
:1002B0004D915D916D917C9115960E947B0517C0C3
:1002C000BA93AA93A3EFB2E040E050E060E870E494
:1002D0000D911D912D913C9115960E94DC0507C052
:1002E0000D911D912D913C9115960E9455060D93EF
:1002F0001D932D933C93A991B9910895BA93AA9314
:10030000A7EFB2E00D911D912D913C9117974D9162
:100310005D916D917C9115960E94DC05E8CFBA93B2
:10032000AA93A3EFB2E04AE959E969E170E4D8CFB2
:10033000BA93AA93A7EFB2E04D915D916D917C9134
:100340001797CECFBA93AA93A3EFB2E00D911D9168
:100350002D913C9115960E942C08C9CFBA93AA936F
:10036000A3EFB2E00D911D912D913C9115960E9445
:100370008707BDCF9D01A1E0B3E04AE050E00D91B9
:100380001C9113960E9485040D931C93D901089526
:10039000E1E0F3E0408151810DEC1CEC2224159F3B
:1003A0009001149F102D210D321D059F100D211D50
:1003B000321D049F110D221D321D890116950795CE
:1003C0001695079516950795048315830895E1E022
:1003D000F3E00081118116950795F0CF9D01A3E010
:1003E000B3E04D915C911397CACFE1E0F3E0208137
:1003F000318107E1039F102D029F110D04821583A7
:100400000895E1E0F3E00081118122813381309F82
:10041000302D219F300D209F310D048235830895AA
:10042000BA93FA2FA7E0B3E04AE050E060E070E052
:100430000D911D912D913C9115960E94B1040D9343
:100440001D932D933C93AF2FB9910895E7E0F3E00E
:1004500044E000811181228133810E94A104008740
:100460001187228733870895BA93FA2FABE0B3E060
:100470004D915D916D917C911797DACFE7E0F3E0B4
:1004800040815181628173810AEE2224079F302DC1
:10049000069F202D310D059F102D210D321D049F2B
:1004A000110D221D321D0086DBCF06EA13EB25E677
:1004B00031E065DEE7E0F3E0D2CF0895089502E988
:1004C0001BE59DDE0093050310930603089505E5E3
:1004D00015E120E030E01CDE212F220F220BE7E0A7
:1004E000F3E0008711872287238708950895E3E1C9
:1004F000F3E06481758106811781601B710B62874F
:1005000073870685248535851B01221A330A309EA0
:10051000302C209E202C310C0785079F102D069F24
:10052000002D110D005F1F4F45E00E947F04020D5A
:10053000131D212F220F220B008011802280338077
:10054000000E111E221E321E008211822282338270
:100550008001910101304DE7140740E02407340782
:100560001CF01DE7408309C0003013484FEF2F4FA8
:100570003F4F34F400E013E8008311834283438348
:1005800045E000811181228133810E94A904008706
:100590001187648775870895682F27979801FE0152
:1005A0003696112332F48DE2319521953040890140
:1005B00001C080E2202F212B19F4FE01359623C0C3
:1005C000A8010DEC1CEC2224159F9001149F102D06
:1005D000210D321D059F100D211D321D049F110D8F
:1005E000221D321D890116950795169507951695BA
:1005F0000795242F205D402F3AE0439F2019229336
:10060000202F212BE9F682938E010E171F0728F465
:1006100020E222930E171F07D8F32796862F0895FE
:100620000BE511E8B9CF0895AD019C0100E083E22C
:1006300093E0FC01A02FB0E01AE0A193B1931A96C9
:100640001A95D9F7039544960A3098F3C901DA014F
:100650000895192F482F83E293E03AE0FC012AE045
:1006600000E0019301932A95E1F744963A95B1F79A
:10067000842F912F0895E3E2F3E024E600E0019354
:1006800001932A95E1F70895F6CFE3E2F3E02AE03B
:1006900000E001930193019301930193019301936E
:1006A00001930193019301930193019301930193AA
:1006B000019301930193019301932A9551F70895B2
:1006C00020E02FBD2EBD2DBD2CBD26BF21E02EBDAF
:1006D000F801099500E00EBD0CB51DB55DDF06B74C
:1006E0000CB51DB5089520E431E00EE111E0E8DF1E
:1006F00027E531E000E311E0E3DF2CE631E00FE332
:1007000011E0DEDF2CE731E00FE411E0D9DF26E86D
:1007100031E000E611E0D4DF26E931E00EE711E038
:10072000CFDF20EA31E00FE811E0CADF20EB31E053
:1007300008E911E0C5DF2AEB31E00AEB11E0C0DF88
:1007400026EC31E008EC11E0BBDF27ED31E007EEED
:1007500011E0B6DF23EE31E00EEE11E0B1DF2DEE59
:1007600031E005EF11E0ACDF2EEF31E001E012E007
:10077000A7DF29E032E000E112E0A2DF25E132E06C
:1007800006E212E09DDF21E232E004E312E098DFAE
:100790002BE232E00EE312E093DF2CE332E002EAD8
:1007A00011E08EDF27E432E00FE512E089DF22E579
:1007B00032E00EE512E084DF21E632E005E512E0EA
:1007C0007FDF2CE632E00DE512E07ADF2BE732E046
:1007D0000EEA11E075DF25E832E007E612E070DF8F
:1007E00023DF2FE832E009E213E06ADF1DDF2AE9A8
:1007F00032E00BE313E064DF17DF25EA32E004E4C4
:1008000013E05EDF11DF20EB32E005E413E058DF98
:100810000091E9031091EA03012B19F006EC11E0B5
:10082000BBDE2BEB32E007E712E04ADF2BEC32E0D5
:1008300006E712E045DF26ED32E000E113E040DF9D
:1008400022EE32E003E113E03BDF00E010E0089528
:1008500000008895FECF0FE30DBF01E00EBFC0E2A0
:10086000D1E00E941C07002311F00E9457070E944C
:1008700073030E9428040C9428040D01DA0140E05F
:1008800050E060E070E00E94D40639F400E010E02F
:100890004D934C9320E030E00CC0B901660F771FF8
:1008A0007E57572F550F550B7D935C932F773078DC
:1008B0003F63D00108950024E8E0EA9532F0001F7C
:1008C000001C0416D0F3041AF8CF001F402D009529
:1008D0000895FF27442312F4F1604195002312F498
:1008E000F09501950E945B04F0FD0195F1FD4195A5
:1008F00008954A951AF0000F111FFBCF08954A95ED
:100900001AF015950795FBCF089500241124EFE008
:10091000001F111F001C111C0416150610F0041AEC
:10092000150AEA95AAF7001F111FA001009510955E
:1009300008954A952AF0000F111F221F331FF9CF87
:1009400008954A952AF03695279517950795F9CF7A
:1009500008954A952AF03595279517950795F9CF6B
:100960000895002411241001E0E2EA9592F0001F9E
:10097000111F221F331F001C111C221C331C0416C4
:1009800015062606370688F3041A150A260A370ABA
:10099000ECCF001F111F221F331FA001B1010095D2
:1009A00010952095309508953095209510950195D6
:1009B0001F4F2F4F3F4F0895FF27112477FB660FDE
:1009C000771F089409F4771F679517F8EE2700241E
:1009D00037FB220F331F089409F4331F279507F8BC
:1009E000089527FD0EC0EE0F001F111F221F3A951C
:1009F0003230B8F7332319F427FD31E002C027FF66
:100A000030E0E03821F400FF08940EF488940F4F92
:100A10001F4F2F4F3F4F323038F4332319F427FD47
:100A200031E002C027FF30E03F3F29F0220F000CE9
:100A3000379527950895ACC0032E002012F40E942C
:100A4000D404E02F012F122F232F3EE9D1CF002411
:100A5000F8CFBCDF432F4F5748F04F3148F007FC29
:100A600091C03FE72FEF1FEF0FEF089533278CC0A2
:100A7000322F212F102F0E2F4F5141950E94A1048C
:100A800007FE08950C94D404F901EE0FFF1F37FB05
:100A9000FF3F31F0EF2BE12BE02B8894B8940895C1
:100AA000E02BE12B21F008949894B8940895989441
:100AB000889438940895FB01EE0FFF1F77FBFF3FEA
:100AC00031F0EF2BE52BE42B8894B8940895E42BB8
:100AD000E52B69F3E8CFEFDF68F021F43723262F09
:100AE0008A010895372FFBCFE6DF20F00BF0089541
:100AF0007327EAF751C0C8DFE8F3B3F361F3DBDF34
:100B0000C8F383F3A1F358DF401751076207730757
:100B100031F4011411F10024E89488942BC078F08A
:100B2000332E372F732D322E262F632D312E152F76
:100B3000532D302E042F432D302C012C132C37171E
:100B400039F0669557954795F795E0407395F7CF3F
:100B5000E7FBEE0FE0E010246AF0EF0F041F151F13
:100B6000261F60F4279517950795E79508F4689474
:100B700033953ECFEF0B040B150B260B39CFE0E876
:100B80007E27B9CF302D30782227112700270895EE
:100B90003FE7302920E8F9CF3FEF2FEFF6CF8BDF8B
:100BA000D8F3D1F370783727089585DFA8F3A3F33E
:100BB000F9CF3078372793CF67DF70F383F3A9F34A
:100BC0007ADF50F3B3F3A9F3F7DE0124E8943F573B
:100BD000E040370FEF1F12F0D9F603C03A3E90F213
:100BE0006894E0E00A92AA933A93AA273324222435
:100BF0003327049FF001059FF00D712D731F149F83
:100C0000F00D711D221C069F700D211C331C159FB9
:100C1000700D211C331E249F700D211C331E169F46
:100C2000200C311CAA1F259F200C311CA31F269FBE
:100C3000300CA11D39915EF43395A6953794279415
:100C40007795F795E79533953130BCF316C0AA2315
:100C500022F0332351F4339510C0339571F4A991E8
:100C6000099096CFA7FD09C03A95EE0FFF1F771F99
:100C7000221C331CAA1F3230A8F7E894FE2B09F07F
:100C800068942A2F8101E72FA9910990BACE13DF2A
:100C900010F00BF087CF80CF0EDFE9F3E0F3032EE7
:100CA000072670CF032E072673CFEEDEA0F37BF36B
:100CB00099F301DF80F39BF3A9F37EDE012427FD86
:100CC00006C0000F111F221F3150E040F8CF67FD12
:100CD00006C0440F551F661F7150F040F8CFE894CE
:100CE000371BEF0B3158EF4F2AF0EE23E9F63F3F69
:100CF000D9F203C03A3EA8F26894E0E0F0E0112493
:100D0000139440175107620738F0315008F4689483
:100D1000000F111F221FEE1F041B150B260BEF0BDC
:100D2000000F111F221FEE1F0A9279E17A95AAF097
:100D3000041715072607EF0730F0041B150B260BC9
:100D4000EF0B089401C08894111C221C331C001C5A
:100D5000000F111F221FEE1FE9CFF0F9E894E22BDC
:100D6000E12BE02B09F068940694379427941794AC
:100D7000E79508F468947395B9F30990332311F05B
:100D8000F0FF09C0369427941794E79508F4689407
:100D900033953130BCF3012D122D232D32CE8BCE65
:100DA00098940895189408956FDED0F3C1F383DE0C
:100DB000B8F3041715072607370708957CDEA0F05F
:100DC00063DE90F029F0E32FE7273AF473170895D4
:100DD00072DE51F04EF008940895041715072607A7
:100DE000370719F016F4B8F78894089564DEE0F335
:100DF0004BDED0F3E7DFC0F308940895BA92AA92CD
:100E00009A928A927A926A925A924A92BA93AA9340
:100E10009A938A930895BB84AA84998488847F8056
:100E20006E805D804C80BB81AA8199818881F0E0D1
:100E3000EC0FFD1FEF01089501E008950E940607E1
:100E4000C801D9011A013F7740E856E968E17BE41F
:100E50000E94F60638F416D0B38300E010E020E0DC
:100E600030E00DC03B2F0E9429050E941C050AD0CE
:100E70003383A801B9018C019D010E94BF05E4E004
:100E80000C941307F101008311832283089520E05D
:100E900008D0E9F708953BBF27913BB702D0D9F7B7
:100EA00008952D9301501040202F212B089502E426
:100EB000402E01E1502E00E0602EF201362D6BBE77
:100EC00007911691F201EE5FFF4F3F4F3BBFA79195
:100ED000B691F201362DEC5FFF4F3F4F3BBF47917C
:100EE00057916691242F252B262B21F0FA01362FBE
:100EF000D2DF01C0CCDF07E0400E00E0501E601ED4
:100F0000A201662D403551416040B8F2089540E09D
:100F10000C948A070E9402072897802FB32F442E33
:100F200040E050E060E070E00E94DE0610F401E076
:100F300001C000E0000F400EBF7743E859EF62E2C6
:100F40007FE3082F3B2F80D076D041E05CEF6FE746
:100F500077E40E94F60688F5AE010E941E076BD06A
:100F6000042D10E06BD0488159816A817B8172D059
:100F7000088319832A833B83AE014C5F5F4F2A01AC
:100F800040E050E060E87EE35FD0A2010E941E07CF
:100F900040E050E060E870E40C811D812E813F81CB
:100FA00053D0A801B901088119812A813B810E948F
:100FB000BF050E942905402E0CC00E942905602E05
:100FC0003DD0A801B9018C019D0133D0460C03E04E
:100FD000402240FA3EF4AC01BD0100E010E020E800
:100FE0003FE327D002E0401608F0B0588C019D0185
:100FF00029D0280139014BEF57ED6EE179E324D078
:1010000045E656E269E97BEB21D048E554E363EA23
:101010007DE31CD041EE5DE565E27FEB17D04BED43
:101020005FE069EC7FE316D00DD02896E8E00C94E1
:101030000F070E94BF05C801D901089520E030E0E4
:101040000C942705AC01BD010C94DC0503D0A20172
:10105000B301FACF0C947B050E94FE06229748014B
:10106000590141E050E060E070E00E94DE0698F433
:1010700040E00E94D40629F400E010E020E030E0D7
:101080004EC001E2EBEEF3E0008351830FEF1FEF60
:101090002FE73FE744C0AE010E943D04C801D901DB
:1010A00045EC53E062E47FE30E947B054AE151E5B1
:1010B00062E17FE33BD0A801B9018C019D013BD0E7
:1010C000402E088100FF14C00A952DD0802F43EFD9
:1010D00054E065EB7FE3042D0E94DC0537FB220F13
:1010E000331F380F3695279537F9C801D9010BC042
:1010F0001AD0842D912FD90137FBAA0FBB1FB00F37
:10110000B695A795B7F940E050E060E87EE38C0122
:101110009D010CD0AC01BD01840195010CD022963B
:10112000ECE00C940B0742E00C9469040E94DC058F
:101130002801390108950E945506A201B3010C94BB
:101140007B05E3014001501100CA002303000000A9
:10115000666C6F61745F636F6E766572745F746FD7
:101160005F666C6F617400666C6F61745F636F6E55
:10117000766572745F746F5F696E7400666C6F6120
:10118000745F6164645F636F6E737400666C6F613B
:10119000745F61646400666C6F61745F6D756C5F31
:1011A000636F6E737400666C6F61745F6D756C0055
:1011B000666C6F61745F6469765F636F6E737400F1
:1011C000666C6F61745F64697600696E7431365F56
:1011D000646976313000696E7431365F64697631E6
:1011E000305F6661737400696E7431365F6469766E
:1011F000313600696E7431365F64697600696E74E9
:1012000031365F6D756C745F636F6E737400696EF9
:101210007431365F6D756C7400696E7433325F645F
:101220006976313000696E7433325F6469763136C5
:1012300000696E7433325F64697600696E743332AC
:101240005F6D756C745F636F6E737400666C6F6155
:10125000745F7371727400696E7431365F7371728A
:101260007400696E7431365F737172745F61736D8F
:1012700000696E7433325F7371727400696E743317
:10128000325F737172745F61736D00666C6F61744D
:101290005F73696E00696E7431365F73696E0074D6
:1012A0006573745F6C6F6F703100746573745F6C1D
:1012B0006F6F703200746573745F6C6F6F703300A2
:1012C000746573745F6C6F6F703400696E7431365F
:1012D0005F70695F7265676C657200656D707479C7
:1012E0005F66756E63007072696E745F696E7431EB
:1012F00036007072696E745F696E7431365F69743E
:101300006F610086E55745D0213F460000000092FE
:101310005B280917000000945B0000170000000024
:101320000000000000000064005000000000000009
:0313300000320F79
:0400000300000000F9
:00000001FF
