:020000020000FC
:100000000C94150518951895189518951895189528
:100010001895189518951895189518951895189578
:100020001895189518951895189518951895189568
:100030001895189518951895189518951895189558
:100040001895189518951895189518951895189548
:100050001895189518951895189518951895189538
:100060001895189518951895189518951895189528
:100070001895189518951895189518951895189518
:10008000189518951895189518951895000024033B
:1000900048066A098C0CAB0FC812E215F9180B1C44
:1000A0001A1F2322282526281F2B112EFB30DF3371
:1000B000BA368C39563C173FCE417A441C47B44976
:1000C0003F4CBF4E33519B53F5554258825AB35C57
:1000D000D75EEB60F162E864CF66A6686D6A236C58
:1000E000C96D5E6FE2705472B573047541766B77BB
:1000F000847889797C7A5C7B297CE37C897D1D7E90
:100100009C7E097F617FA67FD87FF57FFF7FF57F8B
:100110006A925A924A92AA931C01A8015F7756FBF1
:100120002EF460E070E8601B750BAB01652F70E08A
:10013000660F771FECE8F0E0E60FF71F6591759109
:1001400045905490461A570A652C660C660850E094
:10015000842F869DA02D859D902DA10D849D910DB0
:10016000A51F690F7A1F17FF03C071956195704035
:100170008B01C101A9914990599069900895BA9253
:10018000AA929A92F82D372C762D552DE42D682FB2
:100190002801390188249924AA24BB24002400E8DA
:1001A000102E22248FE084019501000F111F221FC1
:1001B000331F000D111D221D321D482F0E94830583
:1001C0008A95401651066206730640F0800C911C19
:1001D000A21CB21C401A510A620A730A16940794B0
:1001E000002D012901F784019501862F4E2E552EF1
:1001F000672E732C8F2E9990A990B9900895592F3E
:10020000282EB8010024112420E830E087E090E097
:100210008001000F111F020F131F482F0E9463055A
:1002200001976017710720F0020E131E601B710BFF
:10023000269571F78001822D952F0895AD01A1E8D3
:10024000B3E00D911C911597212F220F220B322F15
:100250000E9406060D931D932D933C93DA01089599
:100260005B2F6A2FADE7B3E00D911D912D913D916C
:100270000E9413060D931C93A62FB52F0895BA93D1
:10028000AA93A5E7B3E040E050E060E870E40D9188
:100290001D912D913C9115960E94650628C0BA9338
:1002A000AA93A9E7B3E00D911D912D913C91179769
:1002B0004D915D916D917C9115960E94650617C0D8
:1002C000BA93AA93A5E7B3E040E050E060E870E499
:1002D0000D911D912D913C9115960E94C60607C067
:1002E0000D911D912D913C9115960E943F070D9304
:1002F0001D932D933C93A991B9910895BA93AA9314
:10030000A9E7B3E00D911D912D913C9117974D9167
:100310005D916D917C9115960E94C606E8CFBA93C7
:10032000AA93A5E7B3E04AE959E969E170E4D8CFB7
:10033000BA93AA93A9E7B3E04D915D916D917C9139
:100340001797CECFBA93AA93A5E7B3E00D911D916D
:100350002D913C9115960E941609C9CFBA93AA9384
:10036000A5E7B3E00D911D912D913C9115960E944A
:100370007108BDCF9D01A3E8B3E04AE050E00D91C4
:100380001C9113960E946F050D931C93D90108953B
:10039000E3E8F3E0408151810DEC1CEC2224159F31
:1003A0009001149F102D210D321D059F100D211D50
:1003B000321D049F110D221D321D890116950795CE
:1003C0001695079516950795048315830895E3E818
:1003D000F3E00081118116950795F0CF9D01A5E806
:1003E000B3E04D915C911397CACFE3E8F3E020812D
:1003F000318107E1039F102D029F110D04821583A7
:100400000895E3E8F3E00081118122813381309F78
:10041000302D219F300D209F310D048235830895AA
:10042000BA93FA2FA9E8B3E04AE050E060E070E048
:100430000D911D912D913C9115960E949B050D9358
:100440001D932D933C93AF2FB9910895E9E8F3E004
:1004500044E000811181228133810E948B05008755
:100460001187228733870895BA93FA2FADE8B3E056
:100470004D915D916D917C911797DACFE9E8F3E0AA
:1004800040815181628173810AEE2224079F302DC1
:10049000069F202D310D059F102D210D321D049F2B
:1004A000110D221D321D0086DBCF06EA13EB25E677
:1004B00031E065DEE9E8F3E0D2CF0895089502E97E
:1004C0001BE59DDE0093870310938803089505E5DF
:1004D00015E120E030E01CDE212F220F220BE9E89D
:1004E000F3E0008711872287238708950895E5E9BF
:1004F000F3E06481758106811781601B710B62874F
:1005000073870685248535851B01221A330A309EA0
:10051000302C209E202C310C0785079F102D069F24
:10052000002D110D005F1F4F45E00E946905020D6F
:10053000131D212F220F220B008011802280338077
:10054000000E111E221E321E008211822282338270
:100550008001910101304DE7140740E02407340782
:100560001CF01DE7408309C0003013484FEF2F4FA8
:100570003F4F34F400E013E8008311834283438348
:1005800045E000811181228133810E94930500871B
:100590001187648775870895342C7B2F2A2E682F46
:1005A00027979801DE01169600E00E83112332F49E
:1005B0008DE2319521953040890102C080E2022F01
:1005C000202F212B29F4DE01159600E30D830FC0A7
:1005D000402E4AE050E00E946F05242D205D402F00
:1005E0003AE0439F20192E93202F212B89F78E93D9
:1005F0008E010A171B0728F420E22E930A171B0707
:10060000D8F3FE0101C000BB01910023E1F727965A
:10061000862FA22DB72F432C08950BE511E8BCCFF0
:100620004A92BA93AA93F82FA801B901A5EEB3E0B4
:10063000332312F481E001C080E000E00093E50381
:1006400080FB56F450956095709541955F4F6F4FC4
:100650007F4F8A019B0101C0042F402E4AE050E0E9
:1006600060E070E00E949B05642D605D502F4AE0C1
:10067000549F60196E93402F412B422B432B69F7F7
:1006800016F40DE20E938D018F2FA991B991499027
:1006900008951D01192EA801B901A5EAB3E0E1EB07
:1006A000F3E00AE0002E33237AF40DE20093A50371
:1006B000A6EAB3E050956095709541955F4F6F4FF6
:1006C0007F4F8A019B0101C0042F408151816281CB
:1006D0007381041715072607370738F40A943496F0
:1006E00042E0041690F70020C9F00A9490E340819C
:1006F000518162817381041715072607370750F06F
:100700009395041B150B260B370B041715072607AB
:100710003707B0F79D933496002039F700E00C932B
:1007200005EA13E0912DD10108950BE511E82FEFB3
:100730003FEF76DF02C08F0120BBF8012191222319
:10074000D1F708950BE511E82FEF3FEFA2DFF2CFCD
:100750002797FE0101C000BB01910023E1F7279616
:100760000895AD019C0100E086EE93E0FC01A02F0E
:10077000B0E01AE0A193B1931A961A95D9F70395B0
:1007800044960A3098F3C901DA010895192F482FC9
:1007900086EE93E03AE0FC012AE000E00193019349
:1007A0002A95E1F744963A95B1F7842F912F089551
:1007B000E6EEF3E024E600E0019301932A95E1F7E9
:1007C0000895F6CFE6EEF3E02AE000E0019301930E
:1007D0000193019301930193019301930193019379
:1007E0000193019301930193019301930193019369
:1007F000019301932A9551F708959A938A93C90119
:1008000020E02FBD2EBD2DBD2CBD26BF21E02EBD6D
:10081000F801099500E00EBD0CB51DB5BDDEE0E4A4
:10082000F1E001C000BB01910023E1F7FC0101C030
:1008300000BB01910023E1F706B702FF07C0E4E423
:10084000F1E001C000BB01910023E1F7E6E5F1E032
:1008500001C000BB01910023E1F70CB51DB58991E2
:1008600099910895002381F4E8E5F1E001C000BB0F
:1008700001910023E1F789018FDEE6E5F1E001C097
:1008800000BB01910023E1F70895EEE6F1E001C01D
:1008900000BB01910023E1F7EEE8F1E001C000BBED
:1008A00001910023E1F727EA31E00EE111E0A5DF35
:1008B0002EEB31E000E311E0A0DF23ED31E00FE3A8
:1008C00011E09BDF23EE31E00FE411E096DF2DEE27
:1008D00031E000E611E091DF2DEF31E00EE711E0AD
:1008E0008CDF27E032E00FE811E087DF27E132E01C
:1008F00008E911E082DF21E232E00AEB11E07DDF5E
:100900002DE232E008EC11E078DF2EE332E007EE72
:1009100011E073DF2AE432E00EEE11E06EDF24E531
:1009200032E005EF11E069DF25E632E001E012E098
:1009300064DF20E732E000E112E05FDF2CE732E025
:1009400006E212E05ADF28E832E004E312E055DF65
:1009500022E932E00EE312E050DF23EA32E002EA5D
:1009600011E04BDF2EEA32E00FE512E046DF29EB23
:1009700032E00EE512E041DF28EC32E005E512E05E
:100980003CDF23ED32E00DE512E037DF22EE32E00E
:100990000EEA11E032DF2CEE32E007E612E02DDF46
:1009A000E0DE26EF32E006EC13E027DFDADE21E0BE
:1009B00033E008ED13E021DFD4DE2CE033E001EE7C
:1009C00013E01BDFCEDE27E133E002EE13E015DF9C
:1009D0000091AC041091AD04012B11F401E001C0B1
:1009E00000E023E232E03EDF22E233E007E712E0FC
:1009F00004DF22E333E006E712E0FFDE2DE333E01D
:100A00000DE013E0FADE29E433E008EA13E0F5DE56
:100A10002AE533E005E913E0F0DE27E633E002EAF9
:100A200013E0EBCE00008895FECF0FE30DBF01E091
:100A30000EBFC0E2D1E00E940608002311F00E9420
:100A400041080E9445040E9412050C9412050D01F4
:100A5000DA0140E050E060E070E00E94BE0739F447
:100A600000E010E04D934C9320E030E00CC0B90161
:100A7000660F771F7E57572F550F550B7D935C934D
:100A80002F7730783F63D00108950024E8E0EA959D
:100A900032F0001F001C0416D0F3041AF8CF001F18
:100AA000402D00950895FF27442312F4F1604195ED
:100AB000002312F4F09501950E944505F0FD019583
:100AC000F1FD419508954A951AF0000F111FFBCFD3
:100AD00008954A951AF015950795FBCF08950024BF
:100AE0001124EFE0001F111F001C111C0416150635
:100AF00010F0041A150AEA95AAF7001F111FA001A9
:100B00000095109508954A952AF0000F111F221F95
:100B1000331FF9CF08954A952AF0369527951795F2
:100B20000795F9CF08954A952AF035952795179599
:100B30000795F9CF0895002411241001E0E2EA9509
:100B400092F0001F111F221F331F001C111C221CBA
:100B5000331C041615062606370688F3041A150AF0
:100B6000260A370AECCF001F111F221F331FA001D6
:100B7000B1010095109520953095089530952095F8
:100B8000109501951F4F2F4F3F4F0895FF271124B8
:100B900077FB660F771F089409F4771F679517F89E
:100BA000EE27002437FB220F331F089409F4331F6C
:100BB000279507F8089527FD0EC0EE0F001F111F9F
:100BC000221F3A953230B8F7332319F427FD31E06C
:100BD00002C027FF30E0E03821F400FF08940EF453
:100BE00088940F4F1F4F2F4F3F4F323038F433232D
:100BF00019F427FD31E002C027FF30E03F3F29F024
:100C0000220F000C379527950895ACC0032E0020C5
:100C100012F40E94BE05E02F012F122F232F3EE970
:100C2000D1CF0024F8CFBCDF432F4F5748F04F31CE
:100C300048F007FC91C03FE72FEF1FEF0FEF08953B
:100C400033278CC0322F212F102F0E2F4F5141955B
:100C50000E948B0507FE08950C94BE05F901EE0F66
:100C6000FF1F37FBFF3F31F0EF2BE12BE02B889488
:100C7000B8940895E02BE12B21F008949894B8944F
:100C800008959894889438940895FB01EE0FFF1FFF
:100C900077FBFF3F31F0EF2BE52BE42B8894B894E2
:100CA0000895E42BE52B69F3E8CFEFDF68F021F43A
:100CB0003723262F8A010895372FFBCFE6DF20F058
:100CC0000BF008957327EAF751C0C8DFE8F3B3F3D8
:100CD00061F3DBDFC8F383F3A1F358DF401751075B
:100CE0006207730731F4011411F10024E894889429
:100CF0002BC078F0332E372F732D322E262F632DF5
:100D0000312E152F532D302E042F432D302C012C36
:100D1000132C371739F0669557954795F795E040AE
:100D20007395F7CFE7FBEE0FE0E010246AF0EF0FCA
:100D3000041F151F261F60F4279517950795E79543
:100D400008F4689433953ECFEF0B040B150B260B7C
:100D500039CFE0E87E27B9CF302D30782227112710
:100D6000002708953FE7302920E8F9CF3FEF2FEF24
:100D7000F6CF8BDFD8F3D1F370783727089585DF6E
:100D8000A8F3A3F3F9CF3078372793CF67DF70F359
:100D900083F3A9F37ADF50F3B3F3A9F3F7DE012469
:100DA000E8943F57E040370FEF1F12F0D9F603C029
:100DB0003A3E90F26894E0E00A92AA933A93AA2706
:100DC000332422243327049FF001059FF00D712D59
:100DD000731F149FF00D711D221C069F700D211CA6
:100DE000331C159F700D211C331E249F700D211C78
:100DF000331E169F200C311CAA1F259F200C311C6E
:100E0000A31F269F300CA11D39915EF43395A69542
:100E1000379427947795F795E79533953130BCF360
:100E200016C0AA2322F0332351F4339510C0339512
:100E300071F4A991099096CFA7FD09C03A95EE0FDC
:100E4000FF1F771F221C331CAA1F3230A8F7E8941B
:100E5000FE2B09F068942A2F8101E72FA9910990B0
:100E6000BACE13DF10F00BF087CF80CF0EDFE9F39F
:100E7000E0F3032E072670CF032E072673CFEEDE96
:100E8000A0F37BF399F301DF80F39BF3A9F37EDEFC
:100E9000012427FD06C0000F111F221F3150E04022
:100EA000F8CF67FD06C0440F551F661F7150F04014
:100EB000F8CFE894371BEF0B3158EF4F2AF0EE23B1
:100EC000E9F63F3FD9F203C03A3EA8F26894E0E069
:100ED000F0E01124139440175107620738F03150A5
:100EE00008F46894000F111F221FEE1F041B150B3E
:100EF000260BEF0B000F111F221FEE1F0A9279E144
:100F00007A95AAF0041715072607EF0730F0041B9F
:100F1000150B260BEF0B089401C08894111C221CA2
:100F2000331C001C000F111F221FEE1FE9CFF0F928
:100F3000E894E22BE12BE02B09F0689406943794B7
:100F400027941794E79508F468947395B9F309907A
:100F5000332311F0F0FF09C0369427941794E795D6
:100F600008F4689433953130BCF3012D122D232DF4
:100F700032CE8BCE98940895189408956FDED0F3F6
:100F8000C1F383DEB8F30417150726073707089562
:100F90007CDEA0F063DE90F029F0E32FE7273AF43F
:100FA0007317089572DE51F04EF0089408950417F7
:100FB00015072607370719F016F4B8F7889408952F
:100FC00064DEE0F34BDED0F3E7DFC0F3089408956E
:100FD000BA92AA929A928A927A926A925A924A9271
:100FE000BA93AA939A938A930895BB84AA84998406
:100FF00088847F806E805D804C80BB81AA819981CE
:101000008881F0E0EC0FFD1FEF01089501E00895E5
:101010000E94F007C801D9011A013F7740E856E95C
:1010200068E17BE40E94E00738F416D0B38300E067
:1010300010E020E030E00DC03B2F0E9413060E941C
:1010400006060AD03383A801B9018C019D010E94D4
:10105000A906E4E00C94FD07F101008311832283CB
:10106000089520E008D0E9F708953BBF27913BB7EA
:1010700002D0D9F708952D9301501040202F212B35
:10108000089506E1402E03E1502E00E0602EF201AB
:10109000362D6BBE07911691F201EE5FFF4F3F4F69
:1010A0003BBFA791B691F201362DEC5FFF4F3F4F4A
:1010B0003BBF479157916691242F252B262B21F07A
:1010C000FA01362FD2DF01C0CCDF07E0400E00E08E
:1010D000501E601EA201662D443253416040B8F29A
:1010E000089540E00C9474080E94EC072897802F24
:1010F000B32F442E40E050E060E070E00E94C8074B
:1011000010F401E001C000E0000F400EBF7743E89B
:1011100059EF62E27FE3082F3B2F80D076D041E089
:101120005CEF6FE777E40E94E00788F5AE010E946C
:1011300008086BD0042D10E06BD0488159816A817A
:101140007B8172D0088319832A833B83AE014C5F75
:101150005F4F2A0140E050E060E87EE35FD0A201EB
:101160000E94080840E050E060E870E40C811D81B6
:101170002E813F8153D0A801B901088119812A81AC
:101180003B810E94A9060E941306402E0CC00E94BB
:101190001306602E3DD0A801B9018C019D0133D00A
:1011A000460C03E0402240FA3EF4AC01BD0100E0F1
:1011B00010E020E83FE327D002E0401608F0B058E6
:1011C0008C019D0129D0280139014BEF57ED6EE1CB
:1011D00079E324D045E656E269E97BEB21D048E586
:1011E00054E363EA7DE31CD041EE5DE565E27FEB0D
:1011F00017D04BED5FE069EC7FE316D00DD0289659
:10120000E8E00C94F9070E94A906C801D9010895E5
:1012100020E030E00C941106AC01BD010C94C60630
:1012200003D0A201B301FACF0C9465060E94E8072F
:1012300022974801590141E050E060E070E00E94CF
:10124000C80798F440E00E94BE0729F400E010E0CF
:1012500020E030E04EC001E2EEEAF4E0008351838A
:101260000FEF1FEF2FE73FE744C0AE010E942705B5
:10127000C801D90145EC53E062E47FE30E946506B2
:101280004AE151E562E17FE33BD0A801B9018C015D
:101290009D013BD0402E088100FF14C00A952DD03F
:1012A000802F43EF54E065EB7FE3042D0E94C606D8
:1012B00037FB220F331F380F3695279537F9C801B2
:1012C000D9010BC01AD0842D912FD90137FBAA0F59
:1012D000BB1FB00FB695A795B7F940E050E060E8A6
:1012E0007EE38C019D010CD0AC01BD018401950110
:1012F0000CD02296ECE00C94F50742E00C945305D8
:101300000E94C6062801390108950E943F07A201E4
:10131000B3010C94650699024001241300D700D94B
:1013200003000000203A2000202854696D65726F88
:10133000766572666C6F772129000A0041737365C8
:101340007274204572726F7220696E204C696E65EE
:1013500020000A5A6569746D657373756E67205253
:10136000656368656E6F7065726174696F6E656ED6
:101370000A000A2054616B746520202046756E6B4C
:1013800074696F6E736E616D650A00666C6F61746F
:101390005F636F6E766572745F746F5F666C6F61AA
:1013A0007400666C6F61745F636F6E766572745FF4
:1013B000746F5F696E7400666C6F61745F61646402
:1013C0005F636F6E737400666C6F61745F616464F9
:1013D00000666C6F61745F6D756C5F636F6E7374C4
:1013E00000666C6F61745F6D756C00666C6F617424
:1013F0005F6469765F636F6E737400666C6F6174AF
:101400005F64697600696E7431365F646976313085
:1014100000696E7431365F64697631305F6661737E
:101420007400696E7431365F646976313600696EB6
:101430007431365F64697600696E7431365F6D753C
:101440006C745F636F6E737400696E7431365F6DB8
:10145000756C7400696E7433325F64697631300084
:10146000696E7433325F646976313600696E743345
:10147000325F64697600696E7433325F6D756C74C7
:101480005F636F6E737400666C6F61745F7371720B
:101490007400696E7431365F7371727400696E74B2
:1014A00031365F737172745F61736D00696E74338E
:1014B000325F7371727400696E7433325F7371726C
:1014C000745F61736D00666C6F61745F73696E0049
:1014D000696E7431365F73696E00746573745F6C26
:1014E0006F6F703100746573745F6C6F6F70320072
:1014F000746573745F6C6F6F703300746573745FC1
:101500006C6F6F703400696E7431365F70695F7232
:1015100065676C657200656D7074795F66756E6382
:10152000007072696E745F696E7431360070726932
:101530006E745F696E7431365F69746F61007072CA
:10154000696E745F6D7969746F61007072696E7431
:101550005F6D7969746F61320086E55745D0213F30
:101560004600000000925B280917000000945B0011
:1015700000170000000000000000000000640050A0
:1015800000000000000000320F000000000000001A
:10159000000000000000CA9A3B00E1F50580969823
:1015A0000040420F00A086010010270000E8030061
:0D15B00000640000000A00000001000000BF
:0400000300000000F9
:00000001FF
